{
  "contractName": "IterableSet",
  "abi": [
    {
      "constant": true,
      "inputs": [],
      "name": "size",
      "outputs": [
        {
          "name": "",
          "type": "uint256"
        }
      ],
      "payable": false,
      "stateMutability": "view",
      "type": "function"
    },
    {
      "constant": false,
      "inputs": [
        {
          "name": "value",
          "type": "uint256"
        }
      ],
      "name": "add",
      "outputs": [],
      "payable": false,
      "stateMutability": "nonpayable",
      "type": "function"
    },
    {
      "constant": false,
      "inputs": [
        {
          "name": "value",
          "type": "uint256"
        }
      ],
      "name": "remove",
      "outputs": [],
      "payable": false,
      "stateMutability": "nonpayable",
      "type": "function"
    },
    {
      "constant": true,
      "inputs": [
        {
          "name": "value",
          "type": "uint256"
        }
      ],
      "name": "contains",
      "outputs": [
        {
          "name": "",
          "type": "bool"
        }
      ],
      "payable": false,
      "stateMutability": "view",
      "type": "function"
    },
    {
      "constant": true,
      "inputs": [],
      "name": "values",
      "outputs": [
        {
          "name": "",
          "type": "uint256[]"
        }
      ],
      "payable": false,
      "stateMutability": "view",
      "type": "function"
    },
    {
      "constant": true,
      "inputs": [
        {
          "name": "value",
          "type": "uint256"
        }
      ],
      "name": "next",
      "outputs": [
        {
          "name": "",
          "type": "uint256"
        }
      ],
      "payable": false,
      "stateMutability": "view",
      "type": "function"
    },
    {
      "constant": true,
      "inputs": [
        {
          "name": "value",
          "type": "uint256"
        }
      ],
      "name": "previous",
      "outputs": [
        {
          "name": "",
          "type": "uint256"
        }
      ],
      "payable": false,
      "stateMutability": "view",
      "type": "function"
    }
  ],
  "bytecode": "0x6060604052341561000f57600080fd5b6104b68061001e6000396000f3006060604052600436106100825763ffffffff7c01000000000000000000000000000000000000000000000000000000006000350416631003e2d281146100875780633c311f3c1461009f5780634cc82215146100c7578063949d225d146100dd578063971217b7146100f0578063c34052e014610156578063edd004e514610180575b600080fd5b341561009257600080fd5b61009d600435610196565b005b34156100aa57600080fd5b6100b560043561023b565b60405190815260200160405180910390f35b34156100d257600080fd5b61009d600435610276565b34156100e857600080fd5b6100b5610328565b34156100fb57600080fd5b61010361032e565b60405160208082528190810183818151815260200191508051906020019060200280838360005b8381101561014257808201518382015260200161012a565b505050509050019250505060405180910390f35b341561016157600080fd5b61016c6004356103c0565b604051901515815260200160405180910390f35b341561018b57600080fd5b6100b560043561041b565b61019e610456565b6101a7826103c0565b1515610237576003805460010190556060604051908101604090815283825260018054602084015290820184905283815560035491925014156101ee57600282905561020c565b81600080836020015181526020810191909152604001600020600201555b6000828152602081905260409020819081518155602082015181600101556040820151600290910155505b5050565b6000610246826103c0565b151561025157600080fd5b60015482141561026057600080fd5b5060009081526020819052604090206002015490565b6000610281826103c0565b15610237575060008181526020819052604090206001548214156102ac5760018082015490556102ca565b60018082015460028301546000908152602081905260409020909101555b8160025414156102e15760028082015490556102ff565b60028082015460018301546000908152602081905260409020909101555b506003805460001901905560009081526020819052604081208181556001810182905560020155565b60035481565b610336610478565b61033e610478565b6000806003546040518059106103515750595b81815260209182028101820160409081526001546000908152928390528220909450925090505b6003548110156103b857815483828151811061039057fe5b6020908102909101810191909152600192830154600090815290819052604090209101610378565b509092915050565b60008060035411801561041557508160015414806103df575081600254145b806103fa575060008281526020819052604090206001015415155b80610415575060008281526020819052604090206002015415155b92915050565b6000610426826103c0565b151561043157600080fd5b60025482141561044057600080fd5b5060009081526020819052604090206001015490565b6060604051908101604052806000815260200160008152602001600081525090565b602060405190810160405260008152905600a165627a7a723058202f460a81b90a1cfda7126ff993d8a22085c7e4b40903ee8c62c6f20a53136fd80029",
  "source": "pragma solidity ^0.4.18;\n\n/**\n * Contract that offers a Set structure for uint256 allowing \n * at the same time to efficiently list all the elements in it.\n */\ncontract IterableSet {\n\n    // Each element in the set is represented by this structure\n    struct Element {\n        uint256 value;      // Value of the element\n        uint256 next;       // Value of the next element\n        uint256 previous;   // Value of the previous element\n    }\n\n    // Mapping of values to the corresponding elements\n    mapping(uint => Element) elements;\n\n    uint256 first;  // Id of the first element\n    uint256 last;   // Id of the last element\n    uint256 public size;    // Size of the set\n\n    // Adds an provided value to the Set\n    function add(uint256 value) public {\n        if (!contains(value)) {\n            size += 1;\n            Element memory element = Element({\n                value: value,\n                next: first,\n                previous: value\n            });\n\n            first = value;\n            if (size == 1) {\n                last = value;\n            } else {\n                elements[element.next].previous = value;\n            }\n            elements[value] = element;\n        }\n    }\n\n    // Removes the given value from the set \n    function remove(uint256 value) public {\n        if (contains(value)) {\n            Element storage element = elements[value];\n\n            if (first == value) {\n                first = element.next;\n            } else {\n                elements[element.previous].next = element.next;\n            }\n            if (last == value) {\n                last = element.previous;\n            } else {\n                elements[element.next].previous = element.previous;\n            }\n\n            size -= 1;\n            delete elements[value];\n        }\n    }\n\n    // Returns true iff the value is contained in the set\n    function contains(uint256 value) public view returns (bool) {\n        return size > 0 && (first == value || last == value || elements[value].next != 0 || elements[value].previous != 0);\n    }\n\n    // Returns an array containing all the ids in the set\n    function values() public view returns (uint256[]) {\n        uint256[] memory result = new uint256[](size);\n        Element storage position = elements[first];\n        uint256 i;\n        for (i = 0; i < size; i++) {\n            result[i] = position.value;\n            position = elements[position.next];\n        }\n        return result;\n    }\n\n    // Returns the next value in the set.\n    // Fails if the provided value does not belong to the set or it has not next (it is the last one)\n    function next(uint256 value) public view returns (uint256) {\n        require(contains(value));\n        require(value != last);\n        return elements[value].next;\n    }\n\n    // Returns the previous value in the set.\n    // Fails if the provided value does not belong to the set or it has not previous (it is the first one)\n    function previous(uint256 value) public view returns (uint256) {\n        require(contains(value));\n        require(value != first);\n        return elements[value].previous;\n    }\n}",
  "sourcePath": "/home/jaume/Escriptori/Programació/iterableSet/contracts/IterableSet.sol",
  "compiler": {
    "name": "solc",
    "version": "0.4.19+commit.c4cbbb05.Emscripten.clang"
  },
  "schemaVersion": "1.0.1",
  "updatedAt": "2018-03-04T13:07:54.703Z"
}